{
  "_format": "hh3-artifact-1",
  "contractName": "EventReceiver",
  "sourceName": "contracts/event_receiver.sol",
  "abi": [
    {
      "inputs": [
        {
          "internalType": "address",
          "name": "gateway_",
          "type": "address"
        }
      ],
      "stateMutability": "nonpayable",
      "type": "constructor"
    },
    {
      "inputs": [],
      "name": "InvalidAddress",
      "type": "error"
    },
    {
      "inputs": [],
      "name": "NotApprovedByGateway",
      "type": "error"
    },
    {
      "anonymous": false,
      "inputs": [
        {
          "indexed": false,
          "internalType": "string",
          "name": "sourceChain",
          "type": "string"
        },
        {
          "indexed": false,
          "internalType": "string",
          "name": "sourceAddress",
          "type": "string"
        },
        {
          "indexed": false,
          "internalType": "string",
          "name": "message",
          "type": "string"
        }
      ],
      "name": "MessageReceived",
      "type": "event"
    },
    {
      "inputs": [
        {
          "internalType": "bytes32",
          "name": "commandId",
          "type": "bytes32"
        },
        {
          "internalType": "string",
          "name": "sourceChain",
          "type": "string"
        },
        {
          "internalType": "string",
          "name": "sourceAddress",
          "type": "string"
        },
        {
          "internalType": "bytes",
          "name": "payload",
          "type": "bytes"
        }
      ],
      "name": "execute",
      "outputs": [],
      "stateMutability": "nonpayable",
      "type": "function"
    },
    {
      "inputs": [],
      "name": "gateway",
      "outputs": [
        {
          "internalType": "contract IAxelarGateway",
          "name": "",
          "type": "address"
        }
      ],
      "stateMutability": "view",
      "type": "function"
    },
    {
      "inputs": [],
      "name": "lastCommandId",
      "outputs": [
        {
          "internalType": "bytes32",
          "name": "",
          "type": "bytes32"
        }
      ],
      "stateMutability": "view",
      "type": "function"
    },
    {
      "inputs": [],
      "name": "lastMessage",
      "outputs": [
        {
          "internalType": "string",
          "name": "",
          "type": "string"
        }
      ],
      "stateMutability": "view",
      "type": "function"
    },
    {
      "inputs": [],
      "name": "lastSourceAddress",
      "outputs": [
        {
          "internalType": "string",
          "name": "",
          "type": "string"
        }
      ],
      "stateMutability": "view",
      "type": "function"
    },
    {
      "inputs": [],
      "name": "lastSourceChain",
      "outputs": [
        {
          "internalType": "string",
          "name": "",
          "type": "string"
        }
      ],
      "stateMutability": "view",
      "type": "function"
    }
  ],
  "bytecode": "0x60a060405234801561000f575f5ffd5b50604051610fa8380380610fa883398181016040528101906100319190610130565b805f73ffffffffffffffffffffffffffffffffffffffff168173ffffffffffffffffffffffffffffffffffffffff1603610097576040517fe6c4247b00000000000000000000000000000000000000000000000000000000815260040160405180910390fd5b8073ffffffffffffffffffffffffffffffffffffffff1660808173ffffffffffffffffffffffffffffffffffffffff1681525050505061015b565b5f5ffd5b5f73ffffffffffffffffffffffffffffffffffffffff82169050919050565b5f6100ff826100d6565b9050919050565b61010f816100f5565b8114610119575f5ffd5b50565b5f8151905061012a81610106565b92915050565b5f60208284031215610145576101446100d2565b5b5f6101528482850161011c565b91505092915050565b608051610e356101735f395f6101a50152610e355ff3fe608060405234801561000f575f5ffd5b5060043610610060575f3560e01c80630d76869114610064578063116191b61461008257806332970710146100a057806349160658146100be578063e82ad712146100da578063fc34ec9f146100f8575b5f5ffd5b61006c610116565b60405161007991906104df565b60405180910390f35b61008a6101a2565b6040516100979190610579565b60405180910390f35b6100a86101c9565b6040516100b591906104df565b60405180910390f35b6100d860048036038101906100d3919061068c565b610254565b005b6100e2610348565b6040516100ef91906104df565b60405180910390f35b6101006103d4565b60405161010d919061075f565b60405180910390f35b60028054610123906107a5565b80601f016020809104026020016040519081016040528092919081815260200182805461014f906107a5565b801561019a5780601f106101715761010080835404028352916020019161019a565b820191905f5260205f20905b81548152906001019060200180831161017d57829003601f168201915b505050505081565b5f7f0000000000000000000000000000000000000000000000000000000000000000905090565b5f80546101d5906107a5565b80601f0160208091040260200160405190810160405280929190818152602001828054610201906107a5565b801561024c5780601f106102235761010080835404028352916020019161024c565b820191905f5260205f20905b81548152906001019060200180831161022f57829003601f168201915b505050505081565b5f8282604051610265929190610811565b604051809103902090506102776101a2565b73ffffffffffffffffffffffffffffffffffffffff16635f6970c38989898989876040518763ffffffff1660e01b81526004016102b996959493929190610855565b6020604051808303815f875af11580156102d5573d5f5f3e3d5ffd5b505050506040513d601f19601f820116820180604052508101906102f991906108df565b61032f576040517f500c44b400000000000000000000000000000000000000000000000000000000815260040160405180910390fd5b61033e888888888888886103da565b5050505050505050565b60018054610355906107a5565b80601f0160208091040260200160405190810160405280929190818152602001828054610381906107a5565b80156103cc5780601f106103a3576101008083540402835291602001916103cc565b820191905f5260205f20905b8154815290600101906020018083116103af57829003601f168201915b505050505081565b60035481565b5f82828101906103ea9190610a24565b905087600381905550868660019182610404929190610c15565b50848460029182610416929190610c15565b50805f90816104259190610ce2565b507f4bb91efa6f101cb39247944090c1327252e3046492283c9246a07b9d01451f4e878787878560405161045d959493929190610db1565b60405180910390a15050505050505050565b5f81519050919050565b5f82825260208201905092915050565b8281835e5f83830152505050565b5f601f19601f8301169050919050565b5f6104b18261046f565b6104bb8185610479565b93506104cb818560208601610489565b6104d481610497565b840191505092915050565b5f6020820190508181035f8301526104f781846104a7565b905092915050565b5f73ffffffffffffffffffffffffffffffffffffffff82169050919050565b5f819050919050565b5f61054161053c610537846104ff565b61051e565b6104ff565b9050919050565b5f61055282610527565b9050919050565b5f61056382610548565b9050919050565b61057381610559565b82525050565b5f60208201905061058c5f83018461056a565b92915050565b5f604051905090565b5f5ffd5b5f5ffd5b5f819050919050565b6105b5816105a3565b81146105bf575f5ffd5b50565b5f813590506105d0816105ac565b92915050565b5f5ffd5b5f5ffd5b5f5ffd5b5f5f83601f8401126105f7576105f66105d6565b5b8235905067ffffffffffffffff811115610614576106136105da565b5b6020830191508360018202830111156106305761062f6105de565b5b9250929050565b5f5f83601f84011261064c5761064b6105d6565b5b8235905067ffffffffffffffff811115610669576106686105da565b5b602083019150836001820283011115610685576106846105de565b5b9250929050565b5f5f5f5f5f5f5f6080888a0312156106a7576106a661059b565b5b5f6106b48a828b016105c2565b975050602088013567ffffffffffffffff8111156106d5576106d461059f565b5b6106e18a828b016105e2565b9650965050604088013567ffffffffffffffff8111156107045761070361059f565b5b6107108a828b016105e2565b9450945050606088013567ffffffffffffffff8111156107335761073261059f565b5b61073f8a828b01610637565b925092505092959891949750929550565b610759816105a3565b82525050565b5f6020820190506107725f830184610750565b92915050565b7f4e487b71000000000000000000000000000000000000000000000000000000005f52602260045260245ffd5b5f60028204905060018216806107bc57607f821691505b6020821081036107cf576107ce610778565b5b50919050565b5f81905092915050565b828183375f83830152505050565b5f6107f883856107d5565b93506108058385846107df565b82840190509392505050565b5f61081d8284866107ed565b91508190509392505050565b5f6108348385610479565b93506108418385846107df565b61084a83610497565b840190509392505050565b5f6080820190506108685f830189610750565b818103602083015261087b818789610829565b90508181036040830152610890818587610829565b905061089f6060830184610750565b979650505050505050565b5f8115159050919050565b6108be816108aa565b81146108c8575f5ffd5b50565b5f815190506108d9816108b5565b92915050565b5f602082840312156108f4576108f361059b565b5b5f610901848285016108cb565b91505092915050565b5f5ffd5b7f4e487b71000000000000000000000000000000000000000000000000000000005f52604160045260245ffd5b61094482610497565b810181811067ffffffffffffffff821117156109635761096261090e565b5b80604052505050565b5f610975610592565b9050610981828261093b565b919050565b5f67ffffffffffffffff8211156109a05761099f61090e565b5b6109a982610497565b9050602081019050919050565b5f6109c86109c384610986565b61096c565b9050828152602081018484840111156109e4576109e361090a565b5b6109ef8482856107df565b509392505050565b5f82601f830112610a0b57610a0a6105d6565b5b8135610a1b8482602086016109b6565b91505092915050565b5f60208284031215610a3957610a3861059b565b5b5f82013567ffffffffffffffff811115610a5657610a5561059f565b5b610a62848285016109f7565b91505092915050565b5f82905092915050565b5f819050815f5260205f209050919050565b5f6020601f8301049050919050565b5f82821b905092915050565b5f60088302610ad17fffffffffffffffffffffffffffffffffffffffffffffffffffffffffffffffff82610a96565b610adb8683610a96565b95508019841693508086168417925050509392505050565b5f819050919050565b5f610b16610b11610b0c84610af3565b61051e565b610af3565b9050919050565b5f819050919050565b610b2f83610afc565b610b43610b3b82610b1d565b848454610aa2565b825550505050565b5f5f905090565b610b5a610b4b565b610b65818484610b26565b505050565b5b81811015610b8857610b7d5f82610b52565b600181019050610b6b565b5050565b601f821115610bcd57610b9e81610a75565b610ba784610a87565b81016020851015610bb6578190505b610bca610bc285610a87565b830182610b6a565b50505b505050565b5f82821c905092915050565b5f610bed5f1984600802610bd2565b1980831691505092915050565b5f610c058383610bde565b9150826002028217905092915050565b610c1f8383610a6b565b67ffffffffffffffff811115610c3857610c3761090e565b5b610c4282546107a5565b610c4d828285610b8c565b5f601f831160018114610c7a575f8415610c68578287013590505b610c728582610bfa565b865550610cd9565b601f198416610c8886610a75565b5f5b82811015610caf57848901358255600182019150602085019450602081019050610c8a565b86831015610ccc5784890135610cc8601f891682610bde565b8355505b6001600288020188555050505b50505050505050565b610ceb8261046f565b67ffffffffffffffff811115610d0457610d0361090e565b5b610d0e82546107a5565b610d19828285610b8c565b5f60209050601f831160018114610d4a575f8415610d38578287015190505b610d428582610bfa565b865550610da9565b601f198416610d5886610a75565b5f5b82811015610d7f57848901518255600182019150602085019450602081019050610d5a565b86831015610d9c5784890151610d98601f891682610bde565b8355505b6001600288020188555050505b505050505050565b5f6060820190508181035f830152610dca818789610829565b90508181036020830152610ddf818587610829565b90508181036040830152610df381846104a7565b9050969550505050505056fea2646970667358221220bd343ac3ea133c3703939e8f78ce3955a8146c370a87588fb0e62714c9d85d7664736f6c634300081c0033",
  "linkReferences": {},
  "deployedLinkReferences": {},
  "immutableReferences": {
    "11": [
      {
        "length": 32,
        "start": 421
      }
    ]
  },
  "inputSourceName": "project/contracts/event_receiver.sol",
  "buildInfoId": "solc-0_8_28-4bd26b137480456467481ee3967fdc39d242a126"
}